{
  "_format": "hh-sol-artifact-1",
  "contractName": "Userregistry",
  "sourceName": "contracts/VehicleRegistry.sol",
  "abi": [
    {
      "inputs": [],
      "stateMutability": "nonpayable",
      "type": "constructor"
    },
    {
      "anonymous": false,
      "inputs": [
        {
          "indexed": true,
          "internalType": "address",
          "name": "user",
          "type": "address"
        },
        {
          "indexed": false,
          "internalType": "enum Userregistry.Role",
          "name": "role",
          "type": "uint8"
        }
      ],
      "name": "RoleUpdated",
      "type": "event"
    },
    {
      "anonymous": false,
      "inputs": [
        {
          "indexed": true,
          "internalType": "address",
          "name": "user",
          "type": "address"
        }
      ],
      "name": "UserBlacklisted",
      "type": "event"
    },
    {
      "anonymous": false,
      "inputs": [
        {
          "indexed": true,
          "internalType": "address",
          "name": "user",
          "type": "address"
        }
      ],
      "name": "UserRegistered",
      "type": "event"
    },
    {
      "anonymous": false,
      "inputs": [
        {
          "indexed": true,
          "internalType": "address",
          "name": "user",
          "type": "address"
        }
      ],
      "name": "UserVerified",
      "type": "event"
    },
    {
      "inputs": [],
      "name": "admin",
      "outputs": [
        {
          "internalType": "address",
          "name": "",
          "type": "address"
        }
      ],
      "stateMutability": "view",
      "type": "function"
    },
    {
      "inputs": [
        {
          "internalType": "address",
          "name": "",
          "type": "address"
        }
      ],
      "name": "blacklisted",
      "outputs": [
        {
          "internalType": "bool",
          "name": "",
          "type": "bool"
        }
      ],
      "stateMutability": "view",
      "type": "function"
    },
    {
      "inputs": [
        {
          "internalType": "address",
          "name": "_user",
          "type": "address"
        }
      ],
      "name": "getuser",
      "outputs": [
        {
          "components": [
            {
              "internalType": "address",
              "name": "wallet",
              "type": "address"
            },
            {
              "internalType": "string",
              "name": "evmode",
              "type": "string"
            },
            {
              "internalType": "uint256",
              "name": "batterycapacity",
              "type": "uint256"
            },
            {
              "internalType": "bool",
              "name": "isRegister",
              "type": "bool"
            },
            {
              "internalType": "bool",
              "name": "isvarified",
              "type": "bool"
            },
            {
              "internalType": "enum Userregistry.Role",
              "name": "role",
              "type": "uint8"
            },
            {
              "internalType": "uint256",
              "name": "reputation",
              "type": "uint256"
            }
          ],
          "internalType": "struct Userregistry.User",
          "name": "",
          "type": "tuple"
        }
      ],
      "stateMutability": "view",
      "type": "function"
    },
    {
      "inputs": [
        {
          "internalType": "address",
          "name": "_user",
          "type": "address"
        }
      ],
      "name": "isvarifieduser",
      "outputs": [
        {
          "internalType": "bool",
          "name": "",
          "type": "bool"
        }
      ],
      "stateMutability": "view",
      "type": "function"
    },
    {
      "inputs": [
        {
          "internalType": "string",
          "name": "model_ev",
          "type": "string"
        },
        {
          "internalType": "uint256",
          "name": "_battarycapacity",
          "type": "uint256"
        },
        {
          "internalType": "enum Userregistry.Role",
          "name": "_role",
          "type": "uint8"
        }
      ],
      "name": "register_user",
      "outputs": [],
      "stateMutability": "nonpayable",
      "type": "function"
    },
    {
      "inputs": [
        {
          "internalType": "enum Userregistry.Role",
          "name": "_role",
          "type": "uint8"
        }
      ],
      "name": "update_role",
      "outputs": [],
      "stateMutability": "nonpayable",
      "type": "function"
    },
    {
      "inputs": [
        {
          "internalType": "address",
          "name": "_user",
          "type": "address"
        }
      ],
      "name": "userblocklist",
      "outputs": [],
      "stateMutability": "nonpayable",
      "type": "function"
    },
    {
      "inputs": [
        {
          "internalType": "address",
          "name": "_user",
          "type": "address"
        }
      ],
      "name": "varifyuser",
      "outputs": [],
      "stateMutability": "nonpayable",
      "type": "function"
    }
  ],
  "bytecode": "0x6080604052348015600f57600080fd5b50336000806101000a81548173ffffffffffffffffffffffffffffffffffffffff021916908373ffffffffffffffffffffffffffffffffffffffff1602179055506117568061005f6000396000f3fe608060405234801561001057600080fd5b50600436106100885760003560e01c8063cd5718741161005b578063cd57187414610111578063dbac26e914610141578063e3f9fd9814610171578063f851a4401461018d57610088565b80630b5321091461008d578063ba3d5939146100a9578063c0331905146100d9578063c4b86384146100f5575b600080fd5b6100a760048036038101906100a29190610e17565b6101ab565b005b6100c360048036038101906100be9190610ee4565b6104fc565b6040516100d09190610f2c565b60405180910390f35b6100f360048036038101906100ee9190610ee4565b610555565b005b61010f600480360381019061010a9190610f47565b610712565b005b61012b60048036038101906101269190610ee4565b6108c3565b6040516101389190611133565b60405180910390f35b61015b60048036038101906101569190610ee4565b610a89565b6040516101689190610f2c565b60405180910390f35b61018b60048036038101906101869190610ee4565b610aa9565b005b610195610bd5565b6040516101a29190611164565b60405180910390f35b600260003373ffffffffffffffffffffffffffffffffffffffff1673ffffffffffffffffffffffffffffffffffffffff16815260200190815260200160002060009054906101000a900460ff1615610238576040517f08c379a000000000000000000000000000000000000000000000000000000000815260040161022f906111dc565b60405180910390fd5b600160003373ffffffffffffffffffffffffffffffffffffffff1673ffffffffffffffffffffffffffffffffffffffff16815260200190815260200160002060030160009054906101000a900460ff16156102c8576040517f08c379a00000000000000000000000000000000000000000000000000000000081526004016102bf90611248565b60405180910390fd5b600060038111156102dc576102db611020565b5b8160038111156102ef576102ee611020565b5b0361032f576040517f08c379a0000000000000000000000000000000000000000000000000000000008152600401610326906112b4565b60405180910390fd5b6040518060e001604052803373ffffffffffffffffffffffffffffffffffffffff16815260200184815260200183815260200160011515815260200160001515815260200182600381111561038757610386611020565b5b81526020016000815250600160003373ffffffffffffffffffffffffffffffffffffffff1673ffffffffffffffffffffffffffffffffffffffff16815260200190815260200160002060008201518160000160006101000a81548173ffffffffffffffffffffffffffffffffffffffff021916908373ffffffffffffffffffffffffffffffffffffffff160217905550602082015181600101908161042c91906114e0565b506040820151816002015560608201518160030160006101000a81548160ff02191690831515021790555060808201518160030160016101000a81548160ff02191690831515021790555060a08201518160030160026101000a81548160ff021916908360038111156104a2576104a1611020565b5b021790555060c082015181600401559050503373ffffffffffffffffffffffffffffffffffffffff167f54db7a5cb4735e1aac1f53db512d3390390bb6637bd30ad4bf9fc98667d9b9b960405160405180910390a2505050565b6000600160008373ffffffffffffffffffffffffffffffffffffffff1673ffffffffffffffffffffffffffffffffffffffff16815260200190815260200160002060030160019054906101000a900460ff169050919050565b60008054906101000a900473ffffffffffffffffffffffffffffffffffffffff1673ffffffffffffffffffffffffffffffffffffffff163373ffffffffffffffffffffffffffffffffffffffff16146105e3576040517f08c379a00000000000000000000000000000000000000000000000000000000081526004016105da906115fe565b60405180910390fd5b600160008273ffffffffffffffffffffffffffffffffffffffff1673ffffffffffffffffffffffffffffffffffffffff16815260200190815260200160002060030160009054906101000a900460ff16610672576040517f08c379a00000000000000000000000000000000000000000000000000000000081526004016106699061166a565b60405180910390fd5b60018060008373ffffffffffffffffffffffffffffffffffffffff1673ffffffffffffffffffffffffffffffffffffffff16815260200190815260200160002060030160016101000a81548160ff0219169083151502179055508073ffffffffffffffffffffffffffffffffffffffff167fa6625d2d26e786e2f473111bea4b2fcdbbf1863d883a2359989ce3a103d2972a60405160405180910390a250565b600160003373ffffffffffffffffffffffffffffffffffffffff1673ffffffffffffffffffffffffffffffffffffffff16815260200190815260200160002060030160009054906101000a900460ff166107a1576040517f08c379a0000000000000000000000000000000000000000000000000000000008152600401610798906116d6565b60405180910390fd5b600060038111156107b5576107b4611020565b5b8160038111156107c8576107c7611020565b5b03610808576040517f08c379a00000000000000000000000000000000000000000000000000000000081526004016107ff906112b4565b60405180910390fd5b80600160003373ffffffffffffffffffffffffffffffffffffffff1673ffffffffffffffffffffffffffffffffffffffff16815260200190815260200160002060030160026101000a81548160ff0219169083600381111561086d5761086c611020565b5b02179055503373ffffffffffffffffffffffffffffffffffffffff167fc3f8f61911a1537261f77e2703626e158e299a98e341024ecaa26bbd1d884c64826040516108b89190611705565b60405180910390a250565b6108cb610bf9565b600160008373ffffffffffffffffffffffffffffffffffffffff1673ffffffffffffffffffffffffffffffffffffffff1681526020019081526020016000206040518060e00160405290816000820160009054906101000a900473ffffffffffffffffffffffffffffffffffffffff1673ffffffffffffffffffffffffffffffffffffffff1673ffffffffffffffffffffffffffffffffffffffff16815260200160018201805461097b90611303565b80601f01602080910402602001604051908101604052809291908181526020018280546109a790611303565b80156109f45780601f106109c9576101008083540402835291602001916109f4565b820191906000526020600020905b8154815290600101906020018083116109d757829003601f168201915b50505050508152602001600282015481526020016003820160009054906101000a900460ff161515151581526020016003820160019054906101000a900460ff161515151581526020016003820160029054906101000a900460ff166003811115610a6257610a61611020565b5b6003811115610a7457610a73611020565b5b81526020016004820154815250509050919050565b60026020528060005260406000206000915054906101000a900460ff1681565b60008054906101000a900473ffffffffffffffffffffffffffffffffffffffff1673ffffffffffffffffffffffffffffffffffffffff163373ffffffffffffffffffffffffffffffffffffffff1614610b37576040517f08c379a0000000000000000000000000000000000000000000000000000000008152600401610b2e906115fe565b60405180910390fd5b6001600260008373ffffffffffffffffffffffffffffffffffffffff1673ffffffffffffffffffffffffffffffffffffffff16815260200190815260200160002060006101000a81548160ff0219169083151502179055508073ffffffffffffffffffffffffffffffffffffffff167f7f8b7dc89dae85811a7a85800b892b5816ad5d381c856f1b56490f8fc470c9cb60405160405180910390a250565b60008054906101000a900473ffffffffffffffffffffffffffffffffffffffff1681565b6040518060e00160405280600073ffffffffffffffffffffffffffffffffffffffff168152602001606081526020016000815260200160001515815260200160001515815260200160006003811115610c5557610c54611020565b5b8152602001600081525090565b6000604051905090565b600080fd5b600080fd5b600080fd5b600080fd5b6000601f19601f8301169050919050565b7f4e487b7100000000000000000000000000000000000000000000000000000000600052604160045260246000fd5b610cc982610c80565b810181811067ffffffffffffffff82111715610ce857610ce7610c91565b5b80604052505050565b6000610cfb610c62565b9050610d078282610cc0565b919050565b600067ffffffffffffffff821115610d2757610d26610c91565b5b610d3082610c80565b9050602081019050919050565b82818337600083830152505050565b6000610d5f610d5a84610d0c565b610cf1565b905082815260208101848484011115610d7b57610d7a610c7b565b5b610d86848285610d3d565b509392505050565b600082601f830112610da357610da2610c76565b5b8135610db3848260208601610d4c565b91505092915050565b6000819050919050565b610dcf81610dbc565b8114610dda57600080fd5b50565b600081359050610dec81610dc6565b92915050565b60048110610dff57600080fd5b50565b600081359050610e1181610df2565b92915050565b600080600060608486031215610e3057610e2f610c6c565b5b600084013567ffffffffffffffff811115610e4e57610e4d610c71565b5b610e5a86828701610d8e565b9350506020610e6b86828701610ddd565b9250506040610e7c86828701610e02565b9150509250925092565b600073ffffffffffffffffffffffffffffffffffffffff82169050919050565b6000610eb182610e86565b9050919050565b610ec181610ea6565b8114610ecc57600080fd5b50565b600081359050610ede81610eb8565b92915050565b600060208284031215610efa57610ef9610c6c565b5b6000610f0884828501610ecf565b91505092915050565b60008115159050919050565b610f2681610f11565b82525050565b6000602082019050610f416000830184610f1d565b92915050565b600060208284031215610f5d57610f5c610c6c565b5b6000610f6b84828501610e02565b91505092915050565b610f7d81610ea6565b82525050565b600081519050919050565b600082825260208201905092915050565b60005b83811015610fbd578082015181840152602081019050610fa2565b60008484015250505050565b6000610fd482610f83565b610fde8185610f8e565b9350610fee818560208601610f9f565b610ff781610c80565b840191505092915050565b61100b81610dbc565b82525050565b61101a81610f11565b82525050565b7f4e487b7100000000000000000000000000000000000000000000000000000000600052602160045260246000fd5b600481106110605761105f611020565b5b50565b60008190506110718261104f565b919050565b600061108182611063565b9050919050565b61109181611076565b82525050565b600060e0830160008301516110af6000860182610f74565b50602083015184820360208601526110c78282610fc9565b91505060408301516110dc6040860182611002565b5060608301516110ef6060860182611011565b5060808301516111026080860182611011565b5060a083015161111560a0860182611088565b5060c083015161112860c0860182611002565b508091505092915050565b6000602082019050818103600083015261114d8184611097565b905092915050565b61115e81610ea6565b82525050565b60006020820190506111796000830184611155565b92915050565b600082825260208201905092915050565b7f7573657220697320626c6f636b6c697374656400000000000000000000000000600082015250565b60006111c660138361117f565b91506111d182611190565b602082019050919050565b600060208201905081810360008301526111f5816111b9565b9050919050565b7f7573657220616c72656164792072656769737465726400000000000000000000600082015250565b600061123260168361117f565b915061123d826111fc565b602082019050919050565b6000602082019050818103600083015261126181611225565b9050919050565b7f696e76616c696420726f6c650000000000000000000000000000000000000000600082015250565b600061129e600c8361117f565b91506112a982611268565b602082019050919050565b600060208201905081810360008301526112cd81611291565b9050919050565b7f4e487b7100000000000000000000000000000000000000000000000000000000600052602260045260246000fd5b6000600282049050600182168061131b57607f821691505b60208210810361132e5761132d6112d4565b5b50919050565b60008190508160005260206000209050919050565b60006020601f8301049050919050565b600082821b905092915050565b6000600883026113967fffffffffffffffffffffffffffffffffffffffffffffffffffffffffffffffff82611359565b6113a08683611359565b95508019841693508086168417925050509392505050565b6000819050919050565b60006113dd6113d86113d384610dbc565b6113b8565b610dbc565b9050919050565b6000819050919050565b6113f7836113c2565b61140b611403826113e4565b848454611366565b825550505050565b600090565b611420611413565b61142b8184846113ee565b505050565b5b8181101561144f57611444600082611418565b600181019050611431565b5050565b601f8211156114945761146581611334565b61146e84611349565b8101602085101561147d578190505b61149161148985611349565b830182611430565b50505b505050565b600082821c905092915050565b60006114b760001984600802611499565b1980831691505092915050565b60006114d083836114a6565b9150826002028217905092915050565b6114e982610f83565b67ffffffffffffffff81111561150257611501610c91565b5b61150c8254611303565b611517828285611453565b600060209050601f83116001811461154a5760008415611538578287015190505b61154285826114c4565b8655506115aa565b601f19841661155886611334565b60005b828110156115805784890151825560018201915060208501945060208101905061155b565b8683101561159d5784890151611599601f8916826114a6565b8355505b6001600288020188555050505b505050505050565b7f6f6e6c792061646d696e20616c6c6f7765640000000000000000000000000000600082015250565b60006115e860128361117f565b91506115f3826115b2565b602082019050919050565b60006020820190508181036000830152611617816115db565b9050919050565b7f75736572206e6f74207265676973746572656400000000000000000000000000600082015250565b600061165460138361117f565b915061165f8261161e565b602082019050919050565b6000602082019050818103600083015261168381611647565b9050919050565b7f6f6e6c79207265676973746572642073747564656e7420616c6c6f7765640000600082015250565b60006116c0601e8361117f565b91506116cb8261168a565b602082019050919050565b600060208201905081810360008301526116ef816116b3565b9050919050565b6116ff81611076565b82525050565b600060208201905061171a60008301846116f6565b9291505056fea2646970667358221220c249bbfaac571fd20ebf197207737c7224e5da0988123c8561db42d63a9e266164736f6c634300081c0033",
  "linkReferences": {},
  "deployedLinkReferences": {}
}