{
  "_format": "hh-sol-artifact-1",
  "contractName": "EVChargingEscrow",
  "sourceName": "contracts/EVChargingEscrow.sol",
  "abi": [
    {
      "inputs": [
        {
          "internalType": "address",
          "name": "_registry",
          "type": "address"
        },
        {
          "internalType": "address",
          "name": "_validator",
          "type": "address"
        },
        {
          "internalType": "address",
          "name": "_feeReceiver",
          "type": "address"
        },
        {
          "internalType": "uint256",
          "name": "_feeBps",
          "type": "uint256"
        }
      ],
      "stateMutability": "nonpayable",
      "type": "constructor"
    },
    {
      "anonymous": false,
      "inputs": [
        {
          "indexed": true,
          "internalType": "uint256",
          "name": "id",
          "type": "uint256"
        }
      ],
      "name": "Canceled",
      "type": "event"
    },
    {
      "anonymous": false,
      "inputs": [
        {
          "indexed": true,
          "internalType": "uint256",
          "name": "id",
          "type": "uint256"
        },
        {
          "indexed": false,
          "internalType": "uint256",
          "name": "energyDelivered",
          "type": "uint256"
        }
      ],
      "name": "ChargingCompleted",
      "type": "event"
    },
    {
      "anonymous": false,
      "inputs": [
        {
          "indexed": true,
          "internalType": "uint256",
          "name": "id",
          "type": "uint256"
        }
      ],
      "name": "ChargingStarted",
      "type": "event"
    },
    {
      "anonymous": false,
      "inputs": [
        {
          "indexed": true,
          "internalType": "address",
          "name": "feeReceiver",
          "type": "address"
        },
        {
          "indexed": false,
          "internalType": "uint256",
          "name": "feeBps",
          "type": "uint256"
        }
      ],
      "name": "FeeUpdated",
      "type": "event"
    },
    {
      "anonymous": false,
      "inputs": [
        {
          "indexed": true,
          "internalType": "uint256",
          "name": "id",
          "type": "uint256"
        },
        {
          "indexed": true,
          "internalType": "address",
          "name": "donor",
          "type": "address"
        },
        {
          "indexed": false,
          "internalType": "uint256",
          "name": "donorAmount",
          "type": "uint256"
        },
        {
          "indexed": false,
          "internalType": "uint256",
          "name": "feeAmount",
          "type": "uint256"
        }
      ],
      "name": "PaidOut",
      "type": "event"
    },
    {
      "anonymous": false,
      "inputs": [
        {
          "indexed": false,
          "internalType": "bool",
          "name": "status",
          "type": "bool"
        }
      ],
      "name": "Paused",
      "type": "event"
    },
    {
      "anonymous": false,
      "inputs": [
        {
          "indexed": true,
          "internalType": "uint256",
          "name": "id",
          "type": "uint256"
        },
        {
          "indexed": true,
          "internalType": "address",
          "name": "receiver",
          "type": "address"
        },
        {
          "indexed": false,
          "internalType": "uint256",
          "name": "amount",
          "type": "uint256"
        }
      ],
      "name": "Refunded",
      "type": "event"
    },
    {
      "anonymous": false,
      "inputs": [
        {
          "indexed": true,
          "internalType": "uint256",
          "name": "id",
          "type": "uint256"
        },
        {
          "indexed": true,
          "internalType": "address",
          "name": "donor",
          "type": "address"
        }
      ],
      "name": "RequestAccepted",
      "type": "event"
    },
    {
      "anonymous": false,
      "inputs": [
        {
          "indexed": true,
          "internalType": "uint256",
          "name": "id",
          "type": "uint256"
        },
        {
          "indexed": true,
          "internalType": "address",
          "name": "receiver",
          "type": "address"
        },
        {
          "indexed": false,
          "internalType": "uint256",
          "name": "escrowAmount",
          "type": "uint256"
        }
      ],
      "name": "RequestCreated",
      "type": "event"
    },
    {
      "anonymous": false,
      "inputs": [
        {
          "indexed": true,
          "internalType": "address",
          "name": "validator",
          "type": "address"
        }
      ],
      "name": "ValidatorUpdated",
      "type": "event"
    },
    {
      "inputs": [
        {
          "internalType": "uint256",
          "name": "id",
          "type": "uint256"
        }
      ],
      "name": "acceptRequest",
      "outputs": [],
      "stateMutability": "nonpayable",
      "type": "function"
    },
    {
      "inputs": [],
      "name": "acceptTimeout",
      "outputs": [
        {
          "internalType": "uint256",
          "name": "",
          "type": "uint256"
        }
      ],
      "stateMutability": "view",
      "type": "function"
    },
    {
      "inputs": [
        {
          "internalType": "uint256",
          "name": "id",
          "type": "uint256"
        }
      ],
      "name": "cancelOpen",
      "outputs": [],
      "stateMutability": "nonpayable",
      "type": "function"
    },
    {
      "inputs": [],
      "name": "chargingTimeout",
      "outputs": [
        {
          "internalType": "uint256",
          "name": "",
          "type": "uint256"
        }
      ],
      "stateMutability": "view",
      "type": "function"
    },
    {
      "inputs": [
        {
          "internalType": "uint256",
          "name": "id",
          "type": "uint256"
        },
        {
          "internalType": "uint256",
          "name": "energyDelivered",
          "type": "uint256"
        }
      ],
      "name": "completeCharging",
      "outputs": [],
      "stateMutability": "nonpayable",
      "type": "function"
    },
    {
      "inputs": [
        {
          "internalType": "uint256",
          "name": "energyRequired",
          "type": "uint256"
        },
        {
          "internalType": "uint256",
          "name": "pricePerUnitWei",
          "type": "uint256"
        },
        {
          "internalType": "string",
          "name": "location",
          "type": "string"
        }
      ],
      "name": "createRequest",
      "outputs": [
        {
          "internalType": "uint256",
          "name": "id",
          "type": "uint256"
        }
      ],
      "stateMutability": "payable",
      "type": "function"
    },
    {
      "inputs": [
        {
          "internalType": "uint256",
          "name": "",
          "type": "uint256"
        }
      ],
      "name": "escrowBalance",
      "outputs": [
        {
          "internalType": "uint256",
          "name": "",
          "type": "uint256"
        }
      ],
      "stateMutability": "view",
      "type": "function"
    },
    {
      "inputs": [],
      "name": "feeBps",
      "outputs": [
        {
          "internalType": "uint256",
          "name": "",
          "type": "uint256"
        }
      ],
      "stateMutability": "view",
      "type": "function"
    },
    {
      "inputs": [],
      "name": "feeReceiver",
      "outputs": [
        {
          "internalType": "address",
          "name": "",
          "type": "address"
        }
      ],
      "stateMutability": "view",
      "type": "function"
    },
    {
      "inputs": [],
      "name": "owner",
      "outputs": [
        {
          "internalType": "address",
          "name": "",
          "type": "address"
        }
      ],
      "stateMutability": "view",
      "type": "function"
    },
    {
      "inputs": [],
      "name": "paused",
      "outputs": [
        {
          "internalType": "bool",
          "name": "",
          "type": "bool"
        }
      ],
      "stateMutability": "view",
      "type": "function"
    },
    {
      "inputs": [
        {
          "internalType": "uint256",
          "name": "energyRequired",
          "type": "uint256"
        },
        {
          "internalType": "uint256",
          "name": "pricePerUnitWei",
          "type": "uint256"
        }
      ],
      "name": "quoteEscrow",
      "outputs": [
        {
          "internalType": "uint256",
          "name": "",
          "type": "uint256"
        }
      ],
      "stateMutability": "pure",
      "type": "function"
    },
    {
      "inputs": [
        {
          "internalType": "uint256",
          "name": "id",
          "type": "uint256"
        }
      ],
      "name": "refundExpired",
      "outputs": [],
      "stateMutability": "nonpayable",
      "type": "function"
    },
    {
      "inputs": [],
      "name": "registry",
      "outputs": [
        {
          "internalType": "contract IUserregistry",
          "name": "",
          "type": "address"
        }
      ],
      "stateMutability": "view",
      "type": "function"
    },
    {
      "inputs": [],
      "name": "requestCount",
      "outputs": [
        {
          "internalType": "uint256",
          "name": "",
          "type": "uint256"
        }
      ],
      "stateMutability": "view",
      "type": "function"
    },
    {
      "inputs": [
        {
          "internalType": "uint256",
          "name": "",
          "type": "uint256"
        }
      ],
      "name": "requests",
      "outputs": [
        {
          "internalType": "uint256",
          "name": "id",
          "type": "uint256"
        },
        {
          "internalType": "address",
          "name": "receiver",
          "type": "address"
        },
        {
          "internalType": "address",
          "name": "donor",
          "type": "address"
        },
        {
          "internalType": "uint256",
          "name": "energyRequired",
          "type": "uint256"
        },
        {
          "internalType": "uint256",
          "name": "pricePerUnitWei",
          "type": "uint256"
        },
        {
          "internalType": "uint256",
          "name": "createdAt",
          "type": "uint256"
        },
        {
          "internalType": "uint256",
          "name": "acceptedAt",
          "type": "uint256"
        },
        {
          "internalType": "uint256",
          "name": "startedAt",
          "type": "uint256"
        },
        {
          "internalType": "uint256",
          "name": "completedAt",
          "type": "uint256"
        },
        {
          "internalType": "uint256",
          "name": "energyDelivered",
          "type": "uint256"
        },
        {
          "internalType": "string",
          "name": "location",
          "type": "string"
        },
        {
          "internalType": "enum EVChargingEscrow.Status",
          "name": "status",
          "type": "uint8"
        }
      ],
      "stateMutability": "view",
      "type": "function"
    },
    {
      "inputs": [
        {
          "internalType": "address",
          "name": "_feeReceiver",
          "type": "address"
        },
        {
          "internalType": "uint256",
          "name": "_feeBps",
          "type": "uint256"
        }
      ],
      "name": "setFee",
      "outputs": [],
      "stateMutability": "nonpayable",
      "type": "function"
    },
    {
      "inputs": [
        {
          "internalType": "bool",
          "name": "status",
          "type": "bool"
        }
      ],
      "name": "setPaused",
      "outputs": [],
      "stateMutability": "nonpayable",
      "type": "function"
    },
    {
      "inputs": [
        {
          "internalType": "uint256",
          "name": "_acceptTimeout",
          "type": "uint256"
        },
        {
          "internalType": "uint256",
          "name": "_chargingTimeout",
          "type": "uint256"
        }
      ],
      "name": "setTimeouts",
      "outputs": [],
      "stateMutability": "nonpayable",
      "type": "function"
    },
    {
      "inputs": [
        {
          "internalType": "address",
          "name": "_validator",
          "type": "address"
        }
      ],
      "name": "setValidator",
      "outputs": [],
      "stateMutability": "nonpayable",
      "type": "function"
    },
    {
      "inputs": [
        {
          "internalType": "uint256",
          "name": "id",
          "type": "uint256"
        }
      ],
      "name": "startCharging",
      "outputs": [],
      "stateMutability": "nonpayable",
      "type": "function"
    },
    {
      "inputs": [],
      "name": "validator",
      "outputs": [
        {
          "internalType": "address",
          "name": "",
          "type": "address"
        }
      ],
      "stateMutability": "view",
      "type": "function"
    }
  ],
  "bytecode": "0x6080604052610708600855610e1060095534801561001c57600080fd5b50604051614057380380614057833981810160405281019061003e919061035a565b600073ffffffffffffffffffffffffffffffffffffffff168473ffffffffffffffffffffffffffffffffffffffff16036100ad576040517f08c379a00000000000000000000000000000000000000000000000000000000081526004016100a49061041e565b60405180910390fd5b600073ffffffffffffffffffffffffffffffffffffffff168373ffffffffffffffffffffffffffffffffffffffff160361011c576040517f08c379a00000000000000000000000000000000000000000000000000000000081526004016101139061048a565b60405180910390fd5b336000806101000a81548173ffffffffffffffffffffffffffffffffffffffff021916908373ffffffffffffffffffffffffffffffffffffffff16021790555083600260006101000a81548173ffffffffffffffffffffffffffffffffffffffff021916908373ffffffffffffffffffffffffffffffffffffffff16021790555082600160006101000a81548173ffffffffffffffffffffffffffffffffffffffff021916908373ffffffffffffffffffffffffffffffffffffffff160217905550600073ffffffffffffffffffffffffffffffffffffffff168273ffffffffffffffffffffffffffffffffffffffff1614610218578161021a565b335b600360006101000a81548173ffffffffffffffffffffffffffffffffffffffff021916908373ffffffffffffffffffffffffffffffffffffffff1602179055506102698161027260201b60201c565b50505050610516565b6103e88111156102b7576040517f08c379a00000000000000000000000000000000000000000000000000000000081526004016102ae906104f6565b60405180910390fd5b8060048190555050565b600080fd5b600073ffffffffffffffffffffffffffffffffffffffff82169050919050565b60006102f1826102c6565b9050919050565b610301816102e6565b811461030c57600080fd5b50565b60008151905061031e816102f8565b92915050565b6000819050919050565b61033781610324565b811461034257600080fd5b50565b6000815190506103548161032e565b92915050565b60008060008060808587031215610374576103736102c1565b5b60006103828782880161030f565b94505060206103938782880161030f565b93505060406103a48782880161030f565b92505060606103b587828801610345565b91505092959194509250565b600082825260208201905092915050565b7f7265676973747279207a65726f00000000000000000000000000000000000000600082015250565b6000610408600d836103c1565b9150610413826103d2565b602082019050919050565b60006020820190508181036000830152610437816103fb565b9050919050565b7f76616c696461746f72207a65726f000000000000000000000000000000000000600082015250565b6000610474600e836103c1565b915061047f8261043e565b602082019050919050565b600060208201905081810360008301526104a381610467565b9050919050565b7f66656520746f6f20686967680000000000000000000000000000000000000000600082015250565b60006104e0600c836103c1565b91506104eb826104aa565b602082019050919050565b6000602082019050818103600083015261050f816104d3565b9050919050565b613b32806105256000396000f3fe6080604052600436106101355760003560e01c80637b103999116100ab5780638da5cb5b1161006f5780638da5cb5b1461040e578063b3f0067414610439578063bb099ee314610464578063bc9d8e6f146104a1578063e55156b5146104cc578063e715487e146104f557610135565b80637b10399914610320578063806762a01461034b57806381d12c581461037457806382577169146103bc5780638caf03fb146103e557610135565b806324a9d853116100fd57806324a9d8531461020e5780633a5381b5146102395780634ba1f098146102645780635badbe4c1461028d5780635c975abb146102b8578063709d140a146102e357610135565b80631327d3d81461013a5780631402b17a1461016357806316c38b3c1461018c5780631c38c0d8146101b557806322d8df12146101e5575b600080fd5b34801561014657600080fd5b50610161600480360381019061015c9190612555565b610520565b005b34801561016f57600080fd5b5061018a600480360381019061018591906125b8565b6106a4565b005b34801561019857600080fd5b506101b360048036038101906101ae919061261d565b610a86565b005b6101cf60048036038101906101ca91906126af565b610b68565b6040516101dc9190612732565b60405180910390f35b3480156101f157600080fd5b5061020c600480360381019061020791906125b8565b611010565b005b34801561021a57600080fd5b50610223611274565b6040516102309190612732565b60405180910390f35b34801561024557600080fd5b5061024e61127a565b60405161025b919061275c565b60405180910390f35b34801561027057600080fd5b5061028b600480360381019061028691906125b8565b6112a0565b005b34801561029957600080fd5b506102a2611648565b6040516102af9190612732565b60405180910390f35b3480156102c457600080fd5b506102cd61164e565b6040516102da9190612786565b60405180910390f35b3480156102ef57600080fd5b5061030a600480360381019061030591906127a1565b611661565b6040516103179190612732565b60405180910390f35b34801561032c57600080fd5b50610335611677565b6040516103429190612840565b60405180910390f35b34801561035757600080fd5b50610372600480360381019061036d91906125b8565b61169d565b005b34801561038057600080fd5b5061039b600480360381019061039691906125b8565b6118bc565b6040516103b39c9b9a99989796959493929190612962565b60405180910390f35b3480156103c857600080fd5b506103e360048036038101906103de91906127a1565b6119f1565b005b3480156103f157600080fd5b5061040c600480360381019061040791906127a1565b611cbf565b005b34801561041a57600080fd5b50610423611e07565b604051610430919061275c565b60405180910390f35b34801561044557600080fd5b5061044e611e2b565b60405161045b919061275c565b60405180910390f35b34801561047057600080fd5b5061048b600480360381019061048691906125b8565b611e51565b6040516104989190612732565b60405180910390f35b3480156104ad57600080fd5b506104b6611e69565b6040516104c39190612732565b60405180910390f35b3480156104d857600080fd5b506104f360048036038101906104ee9190612a23565b611e6f565b005b34801561050157600080fd5b5061050a612008565b6040516105179190612732565b60405180910390f35b60008054906101000a900473ffffffffffffffffffffffffffffffffffffffff1673ffffffffffffffffffffffffffffffffffffffff163373ffffffffffffffffffffffffffffffffffffffff16146105ae576040517f08c379a00000000000000000000000000000000000000000000000000000000081526004016105a590612aaf565b60405180910390fd5b600073ffffffffffffffffffffffffffffffffffffffff168173ffffffffffffffffffffffffffffffffffffffff160361061d576040517f08c379a000000000000000000000000000000000000000000000000000000000815260040161061490612b1b565b60405180910390fd5b80600160006101000a81548173ffffffffffffffffffffffffffffffffffffffff021916908373ffffffffffffffffffffffffffffffffffffffff1602179055508073ffffffffffffffffffffffffffffffffffffffff167fb3a3a56265020415cf2f7ff198e2052a6e1d43d7eb127450af725829e40e08c260405160405180910390a250565b600a60009054906101000a900460ff16156106f4576040517f08c379a00000000000000000000000000000000000000000000000000000000081526004016106eb90612b87565b60405180910390fd5b60006006600083815260200190815260200160002090506000816000015403610752576040517f08c379a000000000000000000000000000000000000000000000000000000000815260040161074990612bf3565b60405180910390fd5b8060010160009054906101000a900473ffffffffffffffffffffffffffffffffffffffff1673ffffffffffffffffffffffffffffffffffffffff163373ffffffffffffffffffffffffffffffffffffffff16146107e4576040517f08c379a00000000000000000000000000000000000000000000000000000000081526004016107db90612c5f565b60405180910390fd5b600060058111156107f8576107f76128eb565b5b81600b0160009054906101000a900460ff16600581111561081c5761081b6128eb565b5b036108b05760085481600501546108339190612cae565b4211610874576040517f08c379a000000000000000000000000000000000000000000000000000000000815260040161086b90612d2e565b60405180910390fd5b600581600b0160006101000a81548160ff0219169083600581111561089c5761089b6128eb565b5b02179055506108aa8261200e565b50610a83565b600160058111156108c4576108c36128eb565b5b81600b0160009054906101000a900460ff1660058111156108e8576108e76128eb565b5b0361097c5760095481600601546108ff9190612cae565b4211610940576040517f08c379a000000000000000000000000000000000000000000000000000000000815260040161093790612d2e565b60405180910390fd5b600581600b0160006101000a81548160ff02191690836005811115610968576109676128eb565b5b02179055506109768261200e565b50610a83565b600260058111156109905761098f6128eb565b5b81600b0160009054906101000a900460ff1660058111156109b4576109b36128eb565b5b03610a485760095481600701546109cb9190612cae565b4211610a0c576040517f08c379a0000000000000000000000000000000000000000000000000000000008152600401610a0390612d2e565b60405180910390fd5b600581600b0160006101000a81548160ff02191690836005811115610a3457610a336128eb565b5b0217905550610a428261200e565b50610a83565b6040517f08c379a0000000000000000000000000000000000000000000000000000000008152600401610a7a90612d9a565b60405180910390fd5b50565b60008054906101000a900473ffffffffffffffffffffffffffffffffffffffff1673ffffffffffffffffffffffffffffffffffffffff163373ffffffffffffffffffffffffffffffffffffffff1614610b14576040517f08c379a0000000000000000000000000000000000000000000000000000000008152600401610b0b90612aaf565b60405180910390fd5b80600a60006101000a81548160ff0219169083151502179055507f0e2fb031ee032dc02d8011dc50b816eb450cf856abd8261680dac74f72165bd281604051610b5d9190612786565b60405180910390a150565b6000600a60009054906101000a900460ff1615610bba576040517f08c379a0000000000000000000000000000000000000000000000000000000008152600401610bb190612b87565b60405180910390fd5b600260009054906101000a900473ffffffffffffffffffffffffffffffffffffffff1673ffffffffffffffffffffffffffffffffffffffff1663ba3d5939336040518263ffffffff1660e01b8152600401610c15919061275c565b602060405180830381865afa158015610c32573d6000803e3d6000fd5b505050506040513d601f19601f82011682018060405250810190610c569190612dcf565b610c95576040517f08c379a0000000000000000000000000000000000000000000000000000000008152600401610c8c90612e48565b60405180910390fd5b60008511610cd8576040517f08c379a0000000000000000000000000000000000000000000000000000000008152600401610ccf90612eb4565b60405180910390fd5b60008411610d1b576040517f08c379a0000000000000000000000000000000000000000000000000000000008152600401610d1290612f20565b60405180910390fd5b6000610d278686611661565b9050803414610d6b576040517f08c379a0000000000000000000000000000000000000000000000000000000008152600401610d6290612f8c565b60405180910390fd5b60056000815480929190610d7e90612fac565b919050555060055491506040518061018001604052808381526020013373ffffffffffffffffffffffffffffffffffffffff168152602001600073ffffffffffffffffffffffffffffffffffffffff1681526020018781526020018681526020014281526020016000815260200160008152602001600081526020016000815260200185858080601f016020809104026020016040519081016040528093929190818152602001838380828437600081840152601f19601f82011690508083019250505050505050815260200160006005811115610e5f57610e5e6128eb565b5b815250600660008481526020019081526020016000206000820151816000015560208201518160010160006101000a81548173ffffffffffffffffffffffffffffffffffffffff021916908373ffffffffffffffffffffffffffffffffffffffff16021790555060408201518160020160006101000a81548173ffffffffffffffffffffffffffffffffffffffff021916908373ffffffffffffffffffffffffffffffffffffffff160217905550606082015181600301556080820151816004015560a0820151816005015560c0820151816006015560e082015181600701556101008201518160080155610120820151816009015561014082015181600a019081610f6b9190613225565b5061016082015181600b0160006101000a81548160ff02191690836005811115610f9857610f976128eb565b5b02179055509050503460076000848152602001908152602001600020819055503373ffffffffffffffffffffffffffffffffffffffff16827f0f07843fcc5047a6c0a2af35eec5eab563fa21efdc4473efb2303d6c2f8ec6f834604051610fff9190612732565b60405180910390a350949350505050565b600a60009054906101000a900460ff1615611060576040517f08c379a000000000000000000000000000000000000000000000000000000000815260040161105790612b87565b60405180910390fd5b600160009054906101000a900473ffffffffffffffffffffffffffffffffffffffff1673ffffffffffffffffffffffffffffffffffffffff163373ffffffffffffffffffffffffffffffffffffffff16146110f0576040517f08c379a00000000000000000000000000000000000000000000000000000000081526004016110e790613343565b60405180910390fd5b6000600660008381526020019081526020016000209050600081600001540361114e576040517f08c379a000000000000000000000000000000000000000000000000000000000815260040161114590612bf3565b60405180910390fd5b60016005811115611162576111616128eb565b5b81600b0160009054906101000a900460ff166005811115611186576111856128eb565b5b146111c6576040517f08c379a00000000000000000000000000000000000000000000000000000000081526004016111bd906133af565b60405180910390fd5b600081600601540361120d576040517f08c379a00000000000000000000000000000000000000000000000000000000081526004016112049061341b565b60405180910390fd5b428160070181905550600281600b0160006101000a81548160ff0219169083600581111561123e5761123d6128eb565b5b0217905550817fa97b329efc03af6431268affa7e5da503b15bfa22a1742831d2c9675b35ab36a60405160405180910390a25050565b60045481565b600160009054906101000a900473ffffffffffffffffffffffffffffffffffffffff1681565b600a60009054906101000a900460ff16156112f0576040517f08c379a00000000000000000000000000000000000000000000000000000000081526004016112e790612b87565b60405180910390fd5b600260009054906101000a900473ffffffffffffffffffffffffffffffffffffffff1673ffffffffffffffffffffffffffffffffffffffff1663ba3d5939336040518263ffffffff1660e01b815260040161134b919061275c565b602060405180830381865afa158015611368573d6000803e3d6000fd5b505050506040513d601f19601f8201168201806040525081019061138c9190612dcf565b6113cb576040517f08c379a00000000000000000000000000000000000000000000000000000000081526004016113c290612e48565b60405180910390fd5b60006006600083815260200190815260200160002090506000816000015403611429576040517f08c379a000000000000000000000000000000000000000000000000000000000815260040161142090612bf3565b60405180910390fd5b6000600581111561143d5761143c6128eb565b5b81600b0160009054906101000a900460ff166005811115611461576114606128eb565b5b146114a1576040517f08c379a000000000000000000000000000000000000000000000000000000000815260040161149890613487565b60405180910390fd5b3373ffffffffffffffffffffffffffffffffffffffff168160010160009054906101000a900473ffffffffffffffffffffffffffffffffffffffff1673ffffffffffffffffffffffffffffffffffffffff1603611533576040517f08c379a000000000000000000000000000000000000000000000000000000000815260040161152a906134f3565b60405180910390fd5b60085481600501546115459190612cae565b421115611587576040517f08c379a000000000000000000000000000000000000000000000000000000000815260040161157e9061355f565b60405180910390fd5b338160020160006101000a81548173ffffffffffffffffffffffffffffffffffffffff021916908373ffffffffffffffffffffffffffffffffffffffff160217905550428160060181905550600181600b0160006101000a81548160ff021916908360058111156115fb576115fa6128eb565b5b02179055503373ffffffffffffffffffffffffffffffffffffffff16827fa74a28866064b16e695ebbf53f8b0f9aa0bb93885dbbcc373004f1a052cc424860405160405180910390a35050565b60055481565b600a60009054906101000a900460ff1681565b6000818361166f919061357f565b905092915050565b600260009054906101000a900473ffffffffffffffffffffffffffffffffffffffff1681565b600a60009054906101000a900460ff16156116ed576040517f08c379a00000000000000000000000000000000000000000000000000000000081526004016116e490612b87565b60405180910390fd5b6000600660008381526020019081526020016000209050600081600001540361174b576040517f08c379a000000000000000000000000000000000000000000000000000000000815260040161174290612bf3565b60405180910390fd5b8060010160009054906101000a900473ffffffffffffffffffffffffffffffffffffffff1673ffffffffffffffffffffffffffffffffffffffff163373ffffffffffffffffffffffffffffffffffffffff16146117dd576040517f08c379a00000000000000000000000000000000000000000000000000000000081526004016117d490612c5f565b60405180910390fd5b600060058111156117f1576117f06128eb565b5b81600b0160009054906101000a900460ff166005811115611815576118146128eb565b5b14611855576040517f08c379a000000000000000000000000000000000000000000000000000000000815260040161184c90613487565b60405180910390fd5b600481600b0160006101000a81548160ff0219169083600581111561187d5761187c6128eb565b5b0217905550817f829a8683c544ad289ce92d3ce06e9ebad69b18a6916e60ec766c2c217461d8e960405160405180910390a26118b88261200e565b5050565b60066020528060005260406000206000915090508060000154908060010160009054906101000a900473ffffffffffffffffffffffffffffffffffffffff16908060020160009054906101000a900473ffffffffffffffffffffffffffffffffffffffff169080600301549080600401549080600501549080600601549080600701549080600801549080600901549080600a01805461195b90613052565b80601f016020809104026020016040519081016040528092919081815260200182805461198790613052565b80156119d45780601f106119a9576101008083540402835291602001916119d4565b820191906000526020600020905b8154815290600101906020018083116119b757829003601f168201915b50505050509080600b0160009054906101000a900460ff1690508c565b600a60009054906101000a900460ff1615611a41576040517f08c379a0000000000000000000000000000000000000000000000000000000008152600401611a3890612b87565b60405180910390fd5b600160009054906101000a900473ffffffffffffffffffffffffffffffffffffffff1673ffffffffffffffffffffffffffffffffffffffff163373ffffffffffffffffffffffffffffffffffffffff1614611ad1576040517f08c379a0000000000000000000000000000000000000000000000000000000008152600401611ac890613343565b60405180910390fd5b60006006600084815260200190815260200160002090506000816000015403611b2f576040517f08c379a0000000000000000000000000000000000000000000000000000000008152600401611b2690612bf3565b60405180910390fd5b60026005811115611b4357611b426128eb565b5b81600b0160009054906101000a900460ff166005811115611b6757611b666128eb565b5b14611ba7576040517f08c379a0000000000000000000000000000000000000000000000000000000008152600401611b9e9061360d565b60405180910390fd5b600073ffffffffffffffffffffffffffffffffffffffff168160020160009054906101000a900473ffffffffffffffffffffffffffffffffffffffff1673ffffffffffffffffffffffffffffffffffffffff1603611c3a576040517f08c379a0000000000000000000000000000000000000000000000000000000008152600401611c3190613679565b60405180910390fd5b428160080181905550818160090181905550600381600b0160006101000a81548160ff02191690836005811115611c7457611c736128eb565b5b0217905550827fb1942de6a75d4042f8bb4206d7477e6fe8ae608ccb2505dd6665d9c95d1d166483604051611ca99190612732565b60405180910390a2611cba836121be565b505050565b60008054906101000a900473ffffffffffffffffffffffffffffffffffffffff1673ffffffffffffffffffffffffffffffffffffffff163373ffffffffffffffffffffffffffffffffffffffff1614611d4d576040517f08c379a0000000000000000000000000000000000000000000000000000000008152600401611d4490612aaf565b60405180910390fd5b61012c8210158015611d62575062093a808211155b611da1576040517f08c379a0000000000000000000000000000000000000000000000000000000008152600401611d98906136e5565b60405180910390fd5b61012c8110158015611db6575062093a808111155b611df5576040517f08c379a0000000000000000000000000000000000000000000000000000000008152600401611dec90613751565b60405180910390fd5b81600881905550806009819055505050565b60008054906101000a900473ffffffffffffffffffffffffffffffffffffffff1681565b600360009054906101000a900473ffffffffffffffffffffffffffffffffffffffff1681565b60076020528060005260406000206000915090505481565b60085481565b60008054906101000a900473ffffffffffffffffffffffffffffffffffffffff1673ffffffffffffffffffffffffffffffffffffffff163373ffffffffffffffffffffffffffffffffffffffff1614611efd576040517f08c379a0000000000000000000000000000000000000000000000000000000008152600401611ef490612aaf565b60405180910390fd5b600073ffffffffffffffffffffffffffffffffffffffff168273ffffffffffffffffffffffffffffffffffffffff1603611f6c576040517f08c379a0000000000000000000000000000000000000000000000000000000008152600401611f63906137bd565b60405180910390fd5b81600360006101000a81548173ffffffffffffffffffffffffffffffffffffffff021916908373ffffffffffffffffffffffffffffffffffffffff160217905550611fb68161249e565b8173ffffffffffffffffffffffffffffffffffffffff167f6f0eaf2c2f89fb4cfe96a1dee5e764d60b52c7f48aaa590f0850e308aa1b953a82604051611ffc9190612732565b60405180910390a25050565b60095481565b60006007600083815260200190815260200160002054905060008111612069576040517f08c379a000000000000000000000000000000000000000000000000000000000815260040161206090613829565b60405180910390fd5b6000600760008481526020019081526020016000208190555060006006600084815260200190815260200160002060010160009054906101000a900473ffffffffffffffffffffffffffffffffffffffff16905060008173ffffffffffffffffffffffffffffffffffffffff16836040516120e39061387a565b60006040518083038185875af1925050503d8060008114612120576040519150601f19603f3d011682016040523d82523d6000602084013e612125565b606091505b5050905080612169576040517f08c379a0000000000000000000000000000000000000000000000000000000008152600401612160906138db565b60405180910390fd5b8173ffffffffffffffffffffffffffffffffffffffff16847f7ca5472b7ea78c2c0141c5a12ee6d170cf4ce8ed06be3d22c8252ddfc7a6a2c4856040516121b09190612732565b60405180910390a350505050565b60006007600083815260200190815260200160002054905060008111612219576040517f08c379a000000000000000000000000000000000000000000000000000000000815260040161221090613829565b60405180910390fd5b60006007600084815260200190815260200160002081905550600060066000848152602001908152602001600020905060006127106004548461225c919061357f565b612266919061392a565b905060008184612276919061395b565b90506000821115612351576000600360009054906101000a900473ffffffffffffffffffffffffffffffffffffffff1673ffffffffffffffffffffffffffffffffffffffff16836040516122c99061387a565b60006040518083038185875af1925050503d8060008114612306576040519150601f19603f3d011682016040523d82523d6000602084013e61230b565b606091505b505090508061234f576040517f08c379a0000000000000000000000000000000000000000000000000000000008152600401612346906139db565b60405180910390fd5b505b60008360020160009054906101000a900473ffffffffffffffffffffffffffffffffffffffff1673ffffffffffffffffffffffffffffffffffffffff168260405161239b9061387a565b60006040518083038185875af1925050503d80600081146123d8576040519150601f19603f3d011682016040523d82523d6000602084013e6123dd565b606091505b5050905080612421576040517f08c379a000000000000000000000000000000000000000000000000000000000815260040161241890613a47565b60405180910390fd5b8360020160009054906101000a900473ffffffffffffffffffffffffffffffffffffffff1673ffffffffffffffffffffffffffffffffffffffff16867f8ce0a554918cb74f15c8c71b1050e99638b7b01fa5e3c67f29dc06100c47565f848660405161248e929190613a67565b60405180910390a3505050505050565b6103e88111156124e3576040517f08c379a00000000000000000000000000000000000000000000000000000000081526004016124da90613adc565b60405180910390fd5b8060048190555050565b600080fd5b600080fd5b600073ffffffffffffffffffffffffffffffffffffffff82169050919050565b6000612522826124f7565b9050919050565b61253281612517565b811461253d57600080fd5b50565b60008135905061254f81612529565b92915050565b60006020828403121561256b5761256a6124ed565b5b600061257984828501612540565b91505092915050565b6000819050919050565b61259581612582565b81146125a057600080fd5b50565b6000813590506125b28161258c565b92915050565b6000602082840312156125ce576125cd6124ed565b5b60006125dc848285016125a3565b91505092915050565b60008115159050919050565b6125fa816125e5565b811461260557600080fd5b50565b600081359050612617816125f1565b92915050565b600060208284031215612633576126326124ed565b5b600061264184828501612608565b91505092915050565b600080fd5b600080fd5b600080fd5b60008083601f84011261266f5761266e61264a565b5b8235905067ffffffffffffffff81111561268c5761268b61264f565b5b6020830191508360018202830111156126a8576126a7612654565b5b9250929050565b600080600080606085870312156126c9576126c86124ed565b5b60006126d7878288016125a3565b94505060206126e8878288016125a3565b935050604085013567ffffffffffffffff811115612709576127086124f2565b5b61271587828801612659565b925092505092959194509250565b61272c81612582565b82525050565b60006020820190506127476000830184612723565b92915050565b61275681612517565b82525050565b6000602082019050612771600083018461274d565b92915050565b612780816125e5565b82525050565b600060208201905061279b6000830184612777565b92915050565b600080604083850312156127b8576127b76124ed565b5b60006127c6858286016125a3565b92505060206127d7858286016125a3565b9150509250929050565b6000819050919050565b60006128066128016127fc846124f7565b6127e1565b6124f7565b9050919050565b6000612818826127eb565b9050919050565b600061282a8261280d565b9050919050565b61283a8161281f565b82525050565b60006020820190506128556000830184612831565b92915050565b600081519050919050565b600082825260208201905092915050565b60005b8381101561289557808201518184015260208101905061287a565b60008484015250505050565b6000601f19601f8301169050919050565b60006128bd8261285b565b6128c78185612866565b93506128d7818560208601612877565b6128e0816128a1565b840191505092915050565b7f4e487b7100000000000000000000000000000000000000000000000000000000600052602160045260246000fd5b6006811061292b5761292a6128eb565b5b50565b600081905061293c8261291a565b919050565b600061294c8261292e565b9050919050565b61295c81612941565b82525050565b600061018082019050612978600083018f612723565b612985602083018e61274d565b612992604083018d61274d565b61299f606083018c612723565b6129ac608083018b612723565b6129b960a083018a612723565b6129c660c0830189612723565b6129d360e0830188612723565b6129e1610100830187612723565b6129ef610120830186612723565b818103610140830152612a0281856128b2565b9050612a12610160830184612953565b9d9c50505050505050505050505050565b60008060408385031215612a3a57612a396124ed565b5b6000612a4885828601612540565b9250506020612a59858286016125a3565b9150509250929050565b7f6f6e6c79206f776e657200000000000000000000000000000000000000000000600082015250565b6000612a99600a83612866565b9150612aa482612a63565b602082019050919050565b60006020820190508181036000830152612ac881612a8c565b9050919050565b7f76616c696461746f72207a65726f000000000000000000000000000000000000600082015250565b6000612b05600e83612866565b9150612b1082612acf565b602082019050919050565b60006020820190508181036000830152612b3481612af8565b9050919050565b7f7061757365640000000000000000000000000000000000000000000000000000600082015250565b6000612b71600683612866565b9150612b7c82612b3b565b602082019050919050565b60006020820190508181036000830152612ba081612b64565b9050919050565b7f6e6f7420666f756e640000000000000000000000000000000000000000000000600082015250565b6000612bdd600983612866565b9150612be882612ba7565b602082019050919050565b60006020820190508181036000830152612c0c81612bd0565b9050919050565b7f6e6f742072656365697665720000000000000000000000000000000000000000600082015250565b6000612c49600c83612866565b9150612c5482612c13565b602082019050919050565b60006020820190508181036000830152612c7881612c3c565b9050919050565b7f4e487b7100000000000000000000000000000000000000000000000000000000600052601160045260246000fd5b6000612cb982612582565b9150612cc483612582565b9250828201905080821115612cdc57612cdb612c7f565b5b92915050565b7f6e6f742065787069726564000000000000000000000000000000000000000000600082015250565b6000612d18600b83612866565b9150612d2382612ce2565b602082019050919050565b60006020820190508181036000830152612d4781612d0b565b9050919050565b7f6e6f7420726566756e6461626c65000000000000000000000000000000000000600082015250565b6000612d84600e83612866565b9150612d8f82612d4e565b602082019050919050565b60006020820190508181036000830152612db381612d77565b9050919050565b600081519050612dc9816125f1565b92915050565b600060208284031215612de557612de46124ed565b5b6000612df384828501612dba565b91505092915050565b7f6e6f742076657269666965640000000000000000000000000000000000000000600082015250565b6000612e32600c83612866565b9150612e3d82612dfc565b602082019050919050565b60006020820190508181036000830152612e6181612e25565b9050919050565b7f656e657267793d30000000000000000000000000000000000000000000000000600082015250565b6000612e9e600883612866565b9150612ea982612e68565b602082019050919050565b60006020820190508181036000830152612ecd81612e91565b9050919050565b7f70726963653d3000000000000000000000000000000000000000000000000000600082015250565b6000612f0a600783612866565b9150612f1582612ed4565b602082019050919050565b60006020820190508181036000830152612f3981612efd565b9050919050565b7f62616420657363726f7720616d6f756e74000000000000000000000000000000600082015250565b6000612f76601183612866565b9150612f8182612f40565b602082019050919050565b60006020820190508181036000830152612fa581612f69565b9050919050565b6000612fb782612582565b91507fffffffffffffffffffffffffffffffffffffffffffffffffffffffffffffffff8203612fe957612fe8612c7f565b5b600182019050919050565b7f4e487b7100000000000000000000000000000000000000000000000000000000600052604160045260246000fd5b7f4e487b7100000000000000000000000000000000000000000000000000000000600052602260045260246000fd5b6000600282049050600182168061306a57607f821691505b60208210810361307d5761307c613023565b5b50919050565b60008190508160005260206000209050919050565b60006020601f8301049050919050565b600082821b905092915050565b6000600883026130e57fffffffffffffffffffffffffffffffffffffffffffffffffffffffffffffffff826130a8565b6130ef86836130a8565b95508019841693508086168417925050509392505050565b600061312261311d61311884612582565b6127e1565b612582565b9050919050565b6000819050919050565b61313c83613107565b61315061314882613129565b8484546130b5565b825550505050565b600090565b613165613158565b613170818484613133565b505050565b5b818110156131945761318960008261315d565b600181019050613176565b5050565b601f8211156131d9576131aa81613083565b6131b384613098565b810160208510156131c2578190505b6131d66131ce85613098565b830182613175565b50505b505050565b600082821c905092915050565b60006131fc600019846008026131de565b1980831691505092915050565b600061321583836131eb565b9150826002028217905092915050565b61322e8261285b565b67ffffffffffffffff81111561324757613246612ff4565b5b6132518254613052565b61325c828285613198565b600060209050601f83116001811461328f576000841561327d578287015190505b6132878582613209565b8655506132ef565b601f19841661329d86613083565b60005b828110156132c5578489015182556001820191506020850194506020810190506132a0565b868310156132e257848901516132de601f8916826131eb565b8355505b6001600288020188555050505b505050505050565b7f6f6e6c792076616c696461746f72000000000000000000000000000000000000600082015250565b600061332d600e83612866565b9150613338826132f7565b602082019050919050565b6000602082019050818103600083015261335c81613320565b9050919050565b7f6e6f742061636365707465640000000000000000000000000000000000000000600082015250565b6000613399600c83612866565b91506133a482613363565b602082019050919050565b600060208201905081810360008301526133c88161338c565b9050919050565b7f6d697373696e6720616363657074656441740000000000000000000000000000600082015250565b6000613405601283612866565b9150613410826133cf565b602082019050919050565b60006020820190508181036000830152613434816133f8565b9050919050565b7f6e6f74206f70656e000000000000000000000000000000000000000000000000600082015250565b6000613471600883612866565b915061347c8261343b565b602082019050919050565b600060208201905081810360008301526134a081613464565b9050919050565b7f72656365697665722063616e6e6f742061636365707400000000000000000000600082015250565b60006134dd601683612866565b91506134e8826134a7565b602082019050919050565b6000602082019050818103600083015261350c816134d0565b9050919050565b7f6163636570742065787069726564000000000000000000000000000000000000600082015250565b6000613549600e83612866565b915061355482613513565b602082019050919050565b600060208201905081810360008301526135788161353c565b9050919050565b600061358a82612582565b915061359583612582565b92508282026135a381612582565b915082820484148315176135ba576135b9612c7f565b5b5092915050565b7f6e6f74206368617267696e670000000000000000000000000000000000000000600082015250565b60006135f7600c83612866565b9150613602826135c1565b602082019050919050565b60006020820190508181036000830152613626816135ea565b9050919050565b7f6e6f20646f6e6f72000000000000000000000000000000000000000000000000600082015250565b6000613663600883612866565b915061366e8261362d565b602082019050919050565b6000602082019050818103600083015261369281613656565b9050919050565b7f626164206163636570742074696d656f75740000000000000000000000000000600082015250565b60006136cf601283612866565b91506136da82613699565b602082019050919050565b600060208201905081810360008301526136fe816136c2565b9050919050565b7f626164206368617267696e672074696d656f7574000000000000000000000000600082015250565b600061373b601483612866565b915061374682613705565b602082019050919050565b6000602082019050818103600083015261376a8161372e565b9050919050565b7f6665655265636569766572207a65726f00000000000000000000000000000000600082015250565b60006137a7601083612866565b91506137b282613771565b602082019050919050565b600060208201905081810360008301526137d68161379a565b9050919050565b7f6e6f20657363726f770000000000000000000000000000000000000000000000600082015250565b6000613813600983612866565b915061381e826137dd565b602082019050919050565b6000602082019050818103600083015261384281613806565b9050919050565b600081905092915050565b50565b6000613864600083613849565b915061386f82613854565b600082019050919050565b600061388582613857565b9150819050919050565b7f726566756e64206661696c656400000000000000000000000000000000000000600082015250565b60006138c5600d83612866565b91506138d08261388f565b602082019050919050565b600060208201905081810360008301526138f4816138b8565b9050919050565b7f4e487b7100000000000000000000000000000000000000000000000000000000600052601260045260246000fd5b600061393582612582565b915061394083612582565b9250826139505761394f6138fb565b5b828204905092915050565b600061396682612582565b915061397183612582565b925082820390508181111561398957613988612c7f565b5b92915050565b7f666565207472616e73666572206661696c656400000000000000000000000000600082015250565b60006139c5601383612866565b91506139d08261398f565b602082019050919050565b600060208201905081810360008301526139f4816139b8565b9050919050565b7f646f6e6f72207472616e73666572206661696c65640000000000000000000000600082015250565b6000613a31601583612866565b9150613a3c826139fb565b602082019050919050565b60006020820190508181036000830152613a6081613a24565b9050919050565b6000604082019050613a7c6000830185612723565b613a896020830184612723565b9392505050565b7f66656520746f6f20686967680000000000000000000000000000000000000000600082015250565b6000613ac6600c83612866565b9150613ad182613a90565b602082019050919050565b60006020820190508181036000830152613af581613ab9565b905091905056fea2646970667358221220502f6a1609f9bd4b692463b19412903dd98da8852424f9750c6adcce68b5ecc764736f6c634300081c0033",
  "linkReferences": {},
  "deployedLinkReferences": {}
}